:100000000C9446000C9465000C9465000C946500FB
:100010000C9465000C9465000C9465000C946500CC
:100020000C9465000C9465000C9465000C946500BC
:100030000C9465000C9465000C9465000C946500AC
:100040000C9465000C9465000C9465000C9465009C
:100050000C9465000C9465000C9465000C9465008C
:100060000C9465000C9465000C9465000C9465007C
:100070000C9465000C9465000C9465000C9465006C
:100080000C9465000C9465000C94650011241FBE4F
:10009000CFEFD0E4DEBFCDBF11E0A0E0B1E0EAE9F0
:1000A000F2E000E00BBF02C007900D92AE30B10746
:1000B000D9F711E0AEE0B1E001C01D92A031B10767
:1000C000E1F70E9432010C944B010C940000CF9395
:1000D000DF9300D01F92CDB7DEB789837B836A831D
:1000E00089818A3031F48A819B81BC018DE00E9434
:1000F000670080EC90E0FC018081882F90E08072A6
:1001000099270097B1F386EC90E02981FC012083C8
:1001100080E090E00F900F900F90DF91CF910895C5
:10012000CF93DF931F92CDB7DEB780E290E0FC0162
:1001300080818170898380910E0190910F018230BE
:10014000910521F18330910530F4009759F0813009
:10015000910579F042C08330910529F184309105F1
:1001600079F13BC081E090E090930F0180930E0104
:100170003BC08981882319F081E090E002C082E0D1
:1001800090E090930F0180930E012EC08981882307
:1001900019F083E090E002C082E090E090930F01BC
:1001A00080930E0121C08981882319F083E090E0BB
:1001B00002C084E090E090930F0180930E0114C080
:1001C0008981882319F081E090E002C084E090E00A
:1001D00090930F0180930E0107C081E090E090930F
:1001E0000F0180930E01000080910E0190910F018C
:1001F00082309105E1F08330910530F4009759F099
:100200008130910571F025C083309105B1F08430C3
:100210009105C9F01EC085E290E021E0FC01208339
:100220001DC085E290E021E0FC01208317C085E23B
:1002300090E021E0FC01208311C085E290E022E003
:10024000FC0120830BC085E290E022E0FC012083CA
:1002500005C085E290E0FC01108200000F90DF9164
:10026000CF910895CF93DF93CDB7DEB781E290E0D1
:10027000FC01108282E290E02FEFFC01208384E2F7
:1002800090E02FEFFC01208385E290E0FC011082DA
:0A0290000E949000FDCFF894FFCF0C
:0E029A000000000200000000670000000000ED
:00000001FF
