:100000000C944F000C946E000C946E000C946E00D7
:100010000C946E000C946E000C946E000C946E00A8
:100020000C946E000C946E000C946E000C946E0098
:100030000C946E000C946E000C946E000C946E0088
:100040000C946E000C946E000C946E000C946E0078
:100050000C946E000C946E000C946E000C946E0068
:100060000C946E000C946E000C946E000C946E0058
:100070000C946E000C946E000C946E000C946E0048
:100080000C946E000C946E000C946E00D400DB0097
:10009000E8000A012C0151016D018F01B101112409
:1000A0001FBECFEFD0E4DEBFCDBF11E0A0E0B1E0D6
:1000B000E6E4F4E000E00BBF02C007900D92AE3022
:1000C000B107D9F711E0AEE0B1E001C01D92A03157
:1000D000B107E1F70E94FF010C9421020C9400008B
:1000E000CF93DF9300D01F92CDB7DEB789837B8398
:1000F0006A8389818A3031F48A819B81BC018DE0D9
:100100000E94700080EC90E0FC018081882F90E0DC
:10011000807299270097B1F386EC90E02981FC0169
:10012000208380E090E00F900F900F90DF91CF91AF
:100130000895CF93DF9300D000D000D0CDB7DEB7C5
:1001400080E290E0FC0180818A8380E290E0FC0103
:10015000808181708B8380E290E0FC0180818270DD
:100160008C8380E290E0FC01808184708D8380E24A
:1001700090E0FC01808180788E83198280910E014D
:1001800090910F01CC01A0E0B0E040E050E028E009
:1001900030E0841B950B2817390708F404C18A5BEB
:1001A0009F4FFC010C94180281E090E090930F01A6
:1001B00080930E01FFC08D81882319F082E090E0CA
:1001C00002C081E090E090930F0180930E01F2C095
:1001D0008B81882339F083E090E090930F01809326
:1001E0000E0117C08D81882319F48A81882339F480
:1001F00082E090E090930F0180930E010AC08C8101
:10020000882339F081E090E090930F0180930E01F4
:10021000D1C0D0C08B81882319F48A81882339F416
:1002200083E090E090930F0180930E0114C08C81C5
:10023000882339F084E090E090930F0180930E01C1
:100240000AC08D81882339F081E090E090930F01FE
:1002500080930E01AFC0AEC08C81882319F48A81CF
:10026000882339F484E090E090930F0180930E018D
:1002700017C08B81882319F48A81882339F085E09F
:1002800090E090930F0180930E010AC08D81882326
:1002900039F081E090E090930F0180930E018AC0C5
:1002A00089C08E81882339F081E090E090930F011E
:1002B00080930E0111C08D81882339F086E090E093
:1002C00090930F0180930E0107C085E090E090931A
:1002D0000F0180930E016EC06DC08B81882339F0B1
:1002E00087E090E090930F0180930E0117C08D81FD
:1002F000882319F48A81882339F486E090E090936A
:100300000F0180930E010AC08C81882339F085E0AB
:1003100090E090930F0180930E014CC04BC08B81F5
:10032000882319F48A81882339F487E090E0909338
:100330000F0180930E0114C08C81882339F088E06E
:1003400090E090930F0180930E010AC08D81882365
:1003500039F085E090E090930F0180930E012AC060
:1003600029C08C81882319F48A81882339F488E094
:1003700090E090930F0180930E0114C08B8188232D
:1003800039F081E090E090930F0180930E010AC054
:100390008D81882339F085E090E090930F01809360
:1003A0000E0108C007C081E090E090930F01809398
:1003B0000E01000080910E0190910F018130910596
:1003C00021F08530910519F00AC019820AC089818F
:1003D000882319F481E0898304C0198202C019823C
:1003E000000085E290E02981FC01208326960FB66B
:1003F000F894DEBF0FBECDBFDF91CF910895CF93AC
:10040000DF93CDB7DEB781E290E0FC01108282E29B
:1004100090E02FEFFC01208384E290E02FEFFC01BD
:10042000208385E290E0FC0110820E949900FDCFBC
:10043000EE0FFF1F0024001C0BBE0790F691E02D6D
:060440000994F894FFCFBF
:0E044600000000020000000070000000000036
:00000001FF
