:100000000C9446000C9465000C9465000C946500FB
:100010000C9465000C9465000C9465000C946500CC
:100020000C9465000C9465000C9465000C946500BC
:100030000C9465000C9465000C9465000C946500AC
:100040000C9465000C9465000C9465000C9465009C
:100050000C9465000C9465000C9465000C9465008C
:100060000C9465000C9465000C9465000C9465007C
:100070000C9465000C9465000C9465000C9465006C
:100080000C9465000C9465000C94650011241FBE4F
:10009000CFEFD0E4DEBFCDBF11E0A0E0B1E0E0EFF4
:1000A000F2E000E00BBF02C007900D92AE30B10746
:1000B000D9F711E0AEE0B1E001C01D92A031B10767
:1000C000E1F70E945D010C9476010C940000CF933F
:1000D000DF9300D01F92CDB7DEB789837B836A831D
:1000E00089818A3031F48A819B81BC018DE00E9434
:1000F000670080EC90E0FC018081882F90E08072A6
:1001000099270097B1F386EC90E02981FC012083C8
:1001100080E090E00F900F900F90DF91CF910895C5
:10012000CF93DF9300D000D000D0CDB7DEB780E210
:1001300090E0FC0180818A8380E290E0FC01808174
:1001400081708B8380E290E0FC01808182708C83DF
:1001500080E290E0FC01808184708D8380E290E0F9
:10016000FC01808180788E83198280910E019091AC
:100170000F018230910529F18330910530F4009709
:1001800061F08130910581F071C083309105D9F122
:100190008430910509F459C069C081E090E09093E2
:1001A0000F0180930E0169C08D81882319F082E0D0
:1001B00090E002C081E090E090930F0180930E01E7
:1001C0005CC08A81882339F483E090E090930F012A
:1001D00080930E0117C08D81882339F082E090E072
:1001E00090930F0180930E010DC08C81882319F428
:1001F0008B81882339F081E090E090930F01809308
:100200000E013BC03AC08A81882339F483E090E034
:1002100090930F0180930E0117C08C81882339F0D1
:1002200084E090E090930F0180930E010DC08D81CA
:10023000882319F48B81882339F081E090E0909332
:100240000F0180930E0119C018C08E81882339F0E8
:1002500081E090E090930F0180930E010EC084E046
:1002600090E090930F0180930E0107C081E090E031
:1002700090930F0180930E01000080910E019091E8
:100280000F018130910521F08430910519F005C0EE
:10029000198205C081E0898302C01982000085E2CD
:1002A00090E02981FC01208326960FB6F894DEBFEA
:1002B0000FBECDBFDF91CF910895CF93DF93CDB720
:1002C000DEB781E290E0FC01108282E290E02FEF45
:1002D000FC01208384E290E02FEFFC01208385E283
:1002E00090E0FC0110820E949000FDCFF894FFCFB7
:0E02F000000000020000000067000000000097
:00000001FF
