:100000000C944D000C946C000C946C000C946C00DF
:100010000C946C000C946C000C946C000C946C00B0
:100020000C946C000C946C000C946C000C946C00A0
:100030000C946C000C946C000C946C000C946C0090
:100040000C946C000C946C000C946C000C946C0080
:100050000C946C000C946C000C946C000C946C0070
:100060000C946C000C946C000C946C000C946C0060
:100070000C946C000C946C000C946C000C946C0050
:100080000C946C000C946C000C946C00D200D900A1
:10009000E60008012A014601680111241FBECFEFC6
:1000A000D0E4DEBFCDBF11E0A0E0B1E0E4EBF3E0CF
:1000B00000E00BBF02C007900D92AE30B107D9F738
:1000C00011E0AEE0B1E001C01D92A031B107E1F74F
:1000D0000E94B6010C94D8010C940000CF93DF93DA
:1000E00000D01F92CDB7DEB789837B836A83898175
:1000F0008A3031F48A819B81BC018DE00E946E00C0
:1001000080EC90E0FC018081882F90E0807299273C
:100110000097B1F386EC90E02981FC01208380E018
:1001200090E00F900F900F90DF91CF910895CF93B3
:10013000DF9300D000D000D0CDB7DEB780E290E0F2
:10014000FC0180818A8380E290E0FC0180818170E3
:100150008B8380E290E0FC01808182708C8380E25E
:1001600090E0FC01808184708D8380E290E0FC014E
:10017000808180788E83198280910E0190910F0189
:10018000CC01A0E0B0E040E050E026E030E0841B8D
:10019000950B2817390708F4BDC08A5B9F4FFC01F7
:1001A0000C94CF0181E090E090930F0180930E01B9
:1001B000B8C08D81882319F082E090E002C081E010
:1001C00090E090930F0180930E01ABC08A81882349
:1001D00039F483E090E090930F0180930E0117C0F3
:1001E0008D81882339F082E090E090930F01809315
:1001F0000E010DC08C81882319F48B81882339F07E
:1002000081E090E090930F0180930E018AC089C035
:100210008A81882339F483E090E090930F018093E2
:100220000E0117C08C81882339F084E090E0909310
:100230000F0180930E010DC08D81882319F48B81ED
:10024000882339F081E090E090930F0180930E01B4
:1002500068C067C08E81882339F081E090E0909378
:100260000F0180930E0111C08D81882339F085E044
:1002700090E090930F0180930E0107C084E090E01E
:1002800090930F0180930E014CC04BC08A8188234C
:1002900039F486E090E090930F0180930E0117C02F
:1002A0008D81882339F085E090E090930F01809351
:1002B0000E010DC08C81882319F48B81882339F0BD
:1002C00084E090E090930F0180930E012AC029C032
:1002D0008A81882339F486E090E090930F0180931F
:1002E0000E0117C08C81882339F081E090E0909353
:1002F0000F0180930E010DC08D81882319F48B812D
:10030000882339F084E090E090930F0180930E01F0
:1003100008C007C081E090E090930F0180930E0128
:10032000000080910E0190910F018130910521F024
:100330008430910519F00AC019820AC08981882386
:1003400019F481E0898304C0198202C01982000077
:1003500085E290E02981FC01208326960FB6F8946F
:10036000DEBF0FBECDBFDF91CF910895CF93DF9356
:10037000CDB7DEB781E290E0FC01108282E290E02E
:100380002FEFFC01208384E290E02FEFFC0120831B
:1003900085E290E0FC0110820E949700FDCFEE0FF5
:1003A000FF1F0024001C0BBE0790F691E02D09945E
:0403B000F894FFCFEF
:0E03B40000000002000000006E0000000000CB
:00000001FF
